{
  "address": "0xF22ebf87dbe51a91ea973fdbf8e4Fa1a1d06eB57",
  "abi": [
    {
      "inputs": [
        {
          "internalType": "address",
          "name": "erc20Token",
          "type": "address"
        }
      ],
      "stateMutability": "nonpayable",
      "type": "constructor"
    },
    {
      "anonymous": false,
      "inputs": [
        {
          "indexed": false,
          "internalType": "uint256",
          "name": "id",
          "type": "uint256"
        },
        {
          "indexed": true,
          "internalType": "address",
          "name": "owner",
          "type": "address"
        },
        {
          "indexed": true,
          "internalType": "address",
          "name": "to",
          "type": "address"
        },
        {
          "indexed": false,
          "internalType": "bool",
          "name": "isToken",
          "type": "bool"
        },
        {
          "indexed": false,
          "internalType": "uint256",
          "name": "amount",
          "type": "uint256"
        },
        {
          "indexed": false,
          "internalType": "uint256",
          "name": "lockTime",
          "type": "uint256"
        }
      ],
      "name": "NewPlanCreated",
      "type": "event"
    },
    {
      "anonymous": false,
      "inputs": [
        {
          "indexed": false,
          "internalType": "address",
          "name": "erc20",
          "type": "address"
        }
      ],
      "name": "NewTokenRegistered",
      "type": "event"
    },
    {
      "anonymous": false,
      "inputs": [
        {
          "indexed": true,
          "internalType": "address",
          "name": "previousOwner",
          "type": "address"
        },
        {
          "indexed": true,
          "internalType": "address",
          "name": "newOwner",
          "type": "address"
        }
      ],
      "name": "OwnershipTransferred",
      "type": "event"
    },
    {
      "inputs": [
        {
          "internalType": "address",
          "name": "unlocker",
          "type": "address"
        },
        {
          "internalType": "uint256",
          "name": "lockTime",
          "type": "uint256"
        },
        {
          "internalType": "bool",
          "name": "swap",
          "type": "bool"
        }
      ],
      "name": "LockEth",
      "outputs": [],
      "stateMutability": "payable",
      "type": "function"
    },
    {
      "inputs": [
        {
          "internalType": "address",
          "name": "erc20Token",
          "type": "address"
        },
        {
          "internalType": "uint256",
          "name": "amount",
          "type": "uint256"
        },
        {
          "internalType": "address",
          "name": "unlocker",
          "type": "address"
        },
        {
          "internalType": "uint256",
          "name": "lockTime",
          "type": "uint256"
        },
        {
          "internalType": "bool",
          "name": "isToken",
          "type": "bool"
        }
      ],
      "name": "LockToken",
      "outputs": [],
      "stateMutability": "nonpayable",
      "type": "function"
    },
    {
      "inputs": [],
      "name": "_denominationToken",
      "outputs": [
        {
          "internalType": "contract ERC20",
          "name": "",
          "type": "address"
        }
      ],
      "stateMutability": "view",
      "type": "function"
    },
    {
      "inputs": [
        {
          "internalType": "uint256",
          "name": "",
          "type": "uint256"
        }
      ],
      "name": "_plans",
      "outputs": [
        {
          "internalType": "uint256",
          "name": "id",
          "type": "uint256"
        },
        {
          "internalType": "address",
          "name": "owner",
          "type": "address"
        },
        {
          "internalType": "address",
          "name": "unlocker",
          "type": "address"
        },
        {
          "internalType": "uint256",
          "name": "amount",
          "type": "uint256"
        },
        {
          "internalType": "bool",
          "name": "isToken",
          "type": "bool"
        },
        {
          "internalType": "uint256",
          "name": "lockTime",
          "type": "uint256"
        },
        {
          "internalType": "bool",
          "name": "isClaimable",
          "type": "bool"
        }
      ],
      "stateMutability": "view",
      "type": "function"
    },
    {
      "inputs": [],
      "name": "_uniswapV2Factory",
      "outputs": [
        {
          "internalType": "contract IUniswapV2Factory",
          "name": "",
          "type": "address"
        }
      ],
      "stateMutability": "view",
      "type": "function"
    },
    {
      "inputs": [],
      "name": "_uniswapV2Router",
      "outputs": [
        {
          "internalType": "contract IUniswapV2Router02",
          "name": "",
          "type": "address"
        }
      ],
      "stateMutability": "view",
      "type": "function"
    },
    {
      "inputs": [
        {
          "internalType": "address",
          "name": "",
          "type": "address"
        }
      ],
      "name": "allowedTokens",
      "outputs": [
        {
          "internalType": "bool",
          "name": "",
          "type": "bool"
        }
      ],
      "stateMutability": "view",
      "type": "function"
    },
    {
      "inputs": [
        {
          "internalType": "uint256",
          "name": "id",
          "type": "uint256"
        }
      ],
      "name": "claimLockedFund",
      "outputs": [],
      "stateMutability": "nonpayable",
      "type": "function"
    },
    {
      "inputs": [
        {
          "internalType": "address",
          "name": "owner",
          "type": "address"
        }
      ],
      "name": "getPlansByOwner",
      "outputs": [
        {
          "components": [
            {
              "internalType": "uint256",
              "name": "id",
              "type": "uint256"
            },
            {
              "internalType": "address",
              "name": "owner",
              "type": "address"
            },
            {
              "internalType": "address",
              "name": "unlocker",
              "type": "address"
            },
            {
              "internalType": "uint256",
              "name": "amount",
              "type": "uint256"
            },
            {
              "internalType": "bool",
              "name": "isToken",
              "type": "bool"
            },
            {
              "internalType": "uint256",
              "name": "lockTime",
              "type": "uint256"
            },
            {
              "internalType": "bool",
              "name": "isClaimable",
              "type": "bool"
            }
          ],
          "internalType": "struct FundLockManager.Plan[]",
          "name": "",
          "type": "tuple[]"
        }
      ],
      "stateMutability": "view",
      "type": "function"
    },
    {
      "inputs": [
        {
          "internalType": "address",
          "name": "unlocker",
          "type": "address"
        }
      ],
      "name": "getPlansByUnlocker",
      "outputs": [
        {
          "components": [
            {
              "internalType": "uint256",
              "name": "id",
              "type": "uint256"
            },
            {
              "internalType": "address",
              "name": "owner",
              "type": "address"
            },
            {
              "internalType": "address",
              "name": "unlocker",
              "type": "address"
            },
            {
              "internalType": "uint256",
              "name": "amount",
              "type": "uint256"
            },
            {
              "internalType": "bool",
              "name": "isToken",
              "type": "bool"
            },
            {
              "internalType": "uint256",
              "name": "lockTime",
              "type": "uint256"
            },
            {
              "internalType": "bool",
              "name": "isClaimable",
              "type": "bool"
            }
          ],
          "internalType": "struct FundLockManager.Plan[]",
          "name": "",
          "type": "tuple[]"
        }
      ],
      "stateMutability": "view",
      "type": "function"
    },
    {
      "inputs": [],
      "name": "getTotalPlanCount",
      "outputs": [
        {
          "internalType": "uint256",
          "name": "",
          "type": "uint256"
        }
      ],
      "stateMutability": "view",
      "type": "function"
    },
    {
      "inputs": [],
      "name": "getUnClaimedFunds",
      "outputs": [
        {
          "components": [
            {
              "internalType": "uint256",
              "name": "id",
              "type": "uint256"
            },
            {
              "internalType": "address",
              "name": "owner",
              "type": "address"
            },
            {
              "internalType": "address",
              "name": "unlocker",
              "type": "address"
            },
            {
              "internalType": "uint256",
              "name": "amount",
              "type": "uint256"
            },
            {
              "internalType": "bool",
              "name": "isToken",
              "type": "bool"
            },
            {
              "internalType": "uint256",
              "name": "lockTime",
              "type": "uint256"
            },
            {
              "internalType": "bool",
              "name": "isClaimable",
              "type": "bool"
            }
          ],
          "internalType": "struct FundLockManager.Plan[]",
          "name": "",
          "type": "tuple[]"
        }
      ],
      "stateMutability": "view",
      "type": "function"
    },
    {
      "inputs": [],
      "name": "owner",
      "outputs": [
        {
          "internalType": "address",
          "name": "",
          "type": "address"
        }
      ],
      "stateMutability": "view",
      "type": "function"
    },
    {
      "inputs": [
        {
          "internalType": "address",
          "name": "newERC20TokenAddress",
          "type": "address"
        }
      ],
      "name": "registerToken",
      "outputs": [],
      "stateMutability": "nonpayable",
      "type": "function"
    },
    {
      "inputs": [],
      "name": "renounceOwnership",
      "outputs": [],
      "stateMutability": "nonpayable",
      "type": "function"
    },
    {
      "inputs": [
        {
          "internalType": "address",
          "name": "newOwner",
          "type": "address"
        }
      ],
      "name": "transferOwnership",
      "outputs": [],
      "stateMutability": "nonpayable",
      "type": "function"
    },
    {
      "inputs": [
        {
          "internalType": "uint256",
          "name": "id",
          "type": "uint256"
        }
      ],
      "name": "withdraw",
      "outputs": [],
      "stateMutability": "nonpayable",
      "type": "function"
    },
    {
      "stateMutability": "payable",
      "type": "receive"
    }
  ],
  "transactionHash": "0x2580892b8335fb731cdc7be261c141f3d9c1be0e366f660a0fdeac51e60d8669",
  "args": [
    "0xA0b86991c6218b36c1d19D4a2e9Eb0cE3606eB48"
  ],
  "numDeployments": 1,
  "solcInputHash": "fac6e742aa7c436fde18191d989d681b",
  "bytecode": "0x6080604052600680546001600160a01b0319908116735c69bee701ef814a2b6a3edd4b1652cb9cc5aa6f1790915560078054909116737a250d5630b4cf539739df2c5dacb4c659f2488d1790553480156200005957600080fd5b50604051620021cd380380620021cd8339810160408190526200007c916200011b565b6200008733620000cb565b6001808055600280546001600160a01b039093166001600160a01b031990931683179055600091825260036020526040909120805460ff191690911790556200014d565b600080546001600160a01b038381166001600160a01b0319831681178455604051919092169283917f8be0079c531659141344cd1fd0a4f28419497f9722a3daafe3b4186f6b6457e09190a35050565b6000602082840312156200012e57600080fd5b81516001600160a01b03811681146200014657600080fd5b9392505050565b612070806200015d6000396000f3fe6080604052600436106101025760003560e01c80635ac63c59116100955780638da5cb5b116100645780638da5cb5b146102e0578063d7dd2c99146102fe578063e036a05e14610321578063e744092e14610341578063f2fde38b1461038157600080fd5b80635ac63c59146102315780636eb6c2de14610246578063715018a6146102ab5780637d152d9b146102c057600080fd5b80632e1a7d4d116100d15780632e1a7d4d146101995780634bd70222146101b9578063571f9b3d146101f1578063583e05681461021157600080fd5b8063076b18b51461010e57806309824a801461012357806313103007146101435780632811961f1461016357600080fd5b3661010957005b600080fd5b61012161011c366004611d08565b6103a1565b005b34801561012f57600080fd5b5061012161013e366004611d4a565b6104c1565b34801561014f57600080fd5b5061012161015e366004611d67565b610545565b34801561016f57600080fd5b5061018361017e366004611d4a565b610929565b6040516101909190611dc6565b60405180910390f35b3480156101a557600080fd5b506101216101b4366004611e58565b610a92565b3480156101c557600080fd5b506002546101d9906001600160a01b031681565b6040516001600160a01b039091168152602001610190565b3480156101fd57600080fd5b5061018361020c366004611d4a565b610db4565b34801561021d57600080fd5b506007546101d9906001600160a01b031681565b34801561023d57600080fd5b50610183610ef7565b34801561025257600080fd5b50610266610261366004611e58565b610fe2565b604080519788526001600160a01b039687166020890152949095169386019390935260608501919091521515608084015260a0830152151560c082015260e001610190565b3480156102b757600080fd5b50610121611044565b3480156102cc57600080fd5b506101216102db366004611e58565b61107a565b3480156102ec57600080fd5b506000546001600160a01b03166101d9565b34801561030a57600080fd5b506103136111d6565b604051908152602001610190565b34801561032d57600080fd5b506006546101d9906001600160a01b031681565b34801561034d57600080fd5b5061037161035c366004611d4a565b60036020526000908152604090205460ff1681565b6040519015158152602001610190565b34801561038d57600080fd5b5061012161039c366004611d4a565b6111e6565b600034116103f65760405162461bcd60e51b815260206004820152601f60248201527f45746820616d6f756e742073686f756c64206265206772656174207a65726f0060448201526064015b60405180910390fd5b6001600160a01b0383166104465760405162461bcd60e51b8152602060048201526017602482015276756e6c6f636b65722063616e6e6f74206265207a65726f60481b60448201526064016103ed565b6000821161048e5760405162461bcd60e51b8152602060048201526015602482015274131bd8dad51a5b59481a5cc81d1bdbc81cda1bdc9d605a1b60448201526064016103ed565b80156104b157600061049e611281565b90506104ab8185856114ce565b50505050565b6104bc3484846116f9565b505050565b6000546001600160a01b031633146104eb5760405162461bcd60e51b81526004016103ed90611e71565b6001600160a01b038116600081815260036020908152604091829020805460ff1916600117905590519182527f93c7a70d5c04c7be4134b379e978b0db663df1be8f425a67e9cc28e0450ffbe0910160405180910390a150565b6001600160a01b038516600090815260036020526040902054859060ff166105af5760405162461bcd60e51b815260206004820152601b60248201527f5468697320746f6b656e206973206e6f742061636365707465642e000000000060448201526064016103ed565b600085116105ff5760405162461bcd60e51b815260206004820152601f60248201527f45746820616d6f756e742073686f756c64206265206772656174207a65726f0060448201526064016103ed565b6001600160a01b03841661064f5760405162461bcd60e51b8152602060048201526017602482015276756e6c6f636b65722063616e6e6f74206265207a65726f60481b60448201526064016103ed565b600083116106975760405162461bcd60e51b8152602060048201526015602482015274131bd8dad51a5b59481a5cc81d1bdbc81cda1bdc9d605a1b60448201526064016103ed565b604051636eb1769f60e11b815233600482015230602482015285906001600160a01b0388169063dd62ed3e90604401602060405180830381865afa1580156106e3573d6000803e3d6000fd5b505050506040513d601f19601f820116820180604052508101906107079190611ea6565b10156107555760405162461bcd60e51b815260206004820152601860248201527f416c6c6f77616e6365206973206e6f7420656e6f7567682e000000000000000060448201526064016103ed565b6040516323b872dd60e01b8152336004820152306024820152604481018690526001600160a01b038716906323b872dd906064016020604051808303816000875af11580156107a8573d6000803e3d6000fd5b505050506040513d601f19601f820116820180604052508101906107cc9190611ebf565b61080b5760405162461bcd60e51b815260206004820152601060248201526f2a3930b739b332b9102330b4b632b21760811b60448201526064016103ed565b60025485906001600160a01b038881169116148015906108df5760075460405163095ea7b360e01b81526001600160a01b039182166004820152602481018990529089169063095ea7b3906044016020604051808303816000875af1158015610878573d6000803e3d6000fd5b505050506040513d601f19601f8201168201806040525081019061089c9190611ebf565b6108df5760405162461bcd60e51b8152602060048201526014602482015273151c985b9cd9995c88139bdd08105b1b1bddd95960621b60448201526064016103ed565b83156109085780156108f8576108f58888611912565b91505b6109038287876114ce565b61091f565b6109128888611aeb565b915061091f8287876116f9565b5050505050505050565b60045460609060009067ffffffffffffffff81111561094a5761094a611edc565b60405190808252806020026020018201604052801561098357816020015b610970611ca9565b8152602001906001900390816109685790505b5090506000805b600454811015610a89576000600482815481106109a9576109a9611ef2565b60009182526020918290206040805160e08101825260079093029091018054835260018101546001600160a01b03908116948401949094526002810154841691830182905260038101546060840152600481015460ff90811615156080850152600582015460a085015260069091015416151560c0830152909250908716148015610a3757508060a0015142105b8015610a4457508060c001515b15610a765780848481518110610a5c57610a5c611ef2565b60200260200101819052508280610a7290611f1e565b9350505b5080610a8181611f1e565b91505061098a565b50909392505050565b60026001541415610ae55760405162461bcd60e51b815260206004820152601f60248201527f5265656e7472616e637947756172643a207265656e7472616e742063616c6c0060448201526064016103ed565b6002600155600554811115610b2e5760405162461bcd60e51b815260206004820152600f60248201526e233ab732103737ba1032bc34b9ba1760891b60448201526064016103ed565b600060048281548110610b4357610b43611ef2565b600091825260209091206001600790920201908101549091506001600160a01b03163314610ba85760405162461bcd60e51b81526020600482015260126024820152712cb7ba9030b932903737ba1037bbb732b91760711b60448201526064016103ed565b42816005015410610bef5760405162461bcd60e51b8152602060048201526011602482015270233ab732103737ba1032bc3834b932b21760791b60448201526064016103ed565b600681015460ff16610c3b5760405162461bcd60e51b8152602060048201526015602482015274233ab7321030b63932b0b23c9031b630b4b6b2b21760591b60448201526064016103ed565b60068101805460ff19169055600481015460ff1615610d1357600254600382015460405163a9059cbb60e01b815233600482015260248101919091526001600160a01b039091169063a9059cbb906044016020604051808303816000875af1158015610cab573d6000803e3d6000fd5b505050506040513d601f19601f82011682018060405250810190610ccf9190611ebf565b610d0e5760405162461bcd60e51b815260206004820152601060248201526f2a3930b739b332b9102330b4b632b21760811b60448201526064016103ed565b610dac565b600381015460405160009182913391908381818185875af1925050503d8060008114610d5b576040519150601f19603f3d011682016040523d82523d6000602084013e610d60565b606091505b509150915081610da95760405162461bcd60e51b81526020600482015260146024820152732330b4b632b2103a379039b2b7321022ba3432b960611b60448201526064016103ed565b50505b505060018055565b60045460609060009067ffffffffffffffff811115610dd557610dd5611edc565b604051908082528060200260200182016040528015610e0e57816020015b610dfb611ca9565b815260200190600190039081610df35790505b5090506000805b600454811015610a8957600060048281548110610e3457610e34611ef2565b60009182526020918290206040805160e08101825260079093029091018054835260018101546001600160a01b03908116948401859052600282015481169284019290925260038101546060840152600481015460ff90811615156080850152600582015460a085015260069091015416151560c083015290925087161415610ee45780848481518110610eca57610eca611ef2565b60200260200101819052508280610ee090611f1e565b9350505b5080610eef81611f1e565b915050610e15565b60606000610f0433610db4565b90506000815167ffffffffffffffff811115610f2257610f22611edc565b604051908082528060200260200182016040528015610f5b57816020015b610f48611ca9565b815260200190600190039081610f405790505b5090506000805b8351811015610a89576000848281518110610f7f57610f7f611ef2565b602002602001015190508060a0015142118015610f9d57508060c001515b15610fcf5780848481518110610fb557610fb5611ef2565b60200260200101819052508280610fcb90611f1e565b9350505b5080610fda81611f1e565b915050610f62565b60048181548110610ff257600080fd5b600091825260209091206007909102018054600182015460028301546003840154600485015460058601546006909601549496506001600160a01b03938416959290931693909260ff90811692911687565b6000546001600160a01b0316331461106e5760405162461bcd60e51b81526004016103ed90611e71565b6110786000611c46565b565b600260015414156110cd5760405162461bcd60e51b815260206004820152601f60248201527f5265656e7472616e637947756172643a207265656e7472616e742063616c6c0060448201526064016103ed565b60026001556005548111156111165760405162461bcd60e51b815260206004820152600f60248201526e233ab732103737ba1032bc34b9ba1760891b60448201526064016103ed565b60006004828154811061112b5761112b611ef2565b600091825260209091206002600790920201908101549091506001600160a01b031633146111935760405162461bcd60e51b81526020600482015260156024820152742cb7ba9030b932903737ba103ab73637b1b5b2b91760591b60448201526064016103ed565b42816005015411610bef5760405162461bcd60e51b815260206004820152600d60248201526c233ab7321032bc3834b932b21760991b60448201526064016103ed565b60006111e160055490565b905090565b6000546001600160a01b031633146112105760405162461bcd60e51b81526004016103ed90611e71565b6001600160a01b0381166112755760405162461bcd60e51b815260206004820152602660248201527f4f776e61626c653a206e6577206f776e657220697320746865207a65726f206160448201526564647265737360d01b60648201526084016103ed565b61127e81611c46565b50565b604080516002808252606082018352600092839291906020830190803683375050600754604080516315ab88c960e31b815290519394506001600160a01b039091169263ad5c4648925060048083019260209291908290030181865afa1580156112ef573d6000803e3d6000fd5b505050506040513d601f19601f820116820180604052508101906113139190611f39565b8160008151811061132657611326611ef2565b6001600160a01b03928316602091820292909201015260025482519116908290600190811061135757611357611ef2565b6001600160a01b0392831660209182029290920101526002546040516370a0823160e01b815230600482015260009291909116906370a0823190602401602060405180830381865afa1580156113b1573d6000803e3d6000fd5b505050506040513d601f19601f820116820180604052508101906113d59190611ea6565b6007549091506001600160a01b031663b6f9de9534600085306113fa4261012c611f56565b6040518663ffffffff1660e01b81526004016114199493929190611fb2565b6000604051808303818588803b15801561143257600080fd5b505af1158015611446573d6000803e3d6000fd5b50506002546040516370a0823160e01b8152306004820152600094506001600160a01b0390911692506370a082319150602401602060405180830381865afa158015611496573d6000803e3d6000fd5b505050506040513d601f19601f820116820180604052508101906114ba9190611ea6565b90506114c68183611c96565b935050505090565b60006040518060e001604052806114e460055490565b81523360208201526001600160a01b0385166040820152606081018690526001608082015260a0016115168442611f56565b815260016020918201819052600480549182018155600052825160079091027f8a35acfbc15ff81a39ae7d344fd709f28e8600b4aa8c65c6b64bfe7fe36bd19b810191909155908201517f8a35acfbc15ff81a39ae7d344fd709f28e8600b4aa8c65c6b64bfe7fe36bd19c820180546001600160a01b039283166001600160a01b03199182161790915560408401517f8a35acfbc15ff81a39ae7d344fd709f28e8600b4aa8c65c6b64bfe7fe36bd19d840180549184169190921617905560608301517f8a35acfbc15ff81a39ae7d344fd709f28e8600b4aa8c65c6b64bfe7fe36bd19e83015560808301517f8a35acfbc15ff81a39ae7d344fd709f28e8600b4aa8c65c6b64bfe7fe36bd19f8301805491151560ff1992831617905560a08401517f8a35acfbc15ff81a39ae7d344fd709f28e8600b4aa8c65c6b64bfe7fe36bd1a084015560c08401517f8a35acfbc15ff81a39ae7d344fd709f28e8600b4aa8c65c6b64bfe7fe36bd1a1909301805493151593909116929092179091559091508316337fbd6a81ea5131b9b20bf4f7058beb7d920e9fc7383a749741f938bdb75133a9a76116c560055490565b60408051918252600160208301528101889052606081018690526080015b60405180910390a36104ab600580546001019055565b60006040518060e0016040528061170f60055490565b81523360208201526001600160a01b0385166040820152606081018690526000608082015260a0016117418442611f56565b815260016020918201819052600480549182018155600052825160079091027f8a35acfbc15ff81a39ae7d344fd709f28e8600b4aa8c65c6b64bfe7fe36bd19b810191909155908201517f8a35acfbc15ff81a39ae7d344fd709f28e8600b4aa8c65c6b64bfe7fe36bd19c820180546001600160a01b039283166001600160a01b03199182161790915560408401517f8a35acfbc15ff81a39ae7d344fd709f28e8600b4aa8c65c6b64bfe7fe36bd19d840180549184169190921617905560608301517f8a35acfbc15ff81a39ae7d344fd709f28e8600b4aa8c65c6b64bfe7fe36bd19e83015560808301517f8a35acfbc15ff81a39ae7d344fd709f28e8600b4aa8c65c6b64bfe7fe36bd19f8301805491151560ff1992831617905560a08401517f8a35acfbc15ff81a39ae7d344fd709f28e8600b4aa8c65c6b64bfe7fe36bd1a084015560c08401517f8a35acfbc15ff81a39ae7d344fd709f28e8600b4aa8c65c6b64bfe7fe36bd1a1909301805493151593909116929092179091559091508316337fbd6a81ea5131b9b20bf4f7058beb7d920e9fc7383a749741f938bdb75133a9a76118f060055490565b60408051918252600060208301528101889052606081018690526080016116e3565b60408051600280825260608201835260009283929190602083019080368337019050509050838160008151811061194b5761194b611ef2565b6001600160a01b03928316602091820292909201015260025482519116908290600190811061197c5761197c611ef2565b6001600160a01b0392831660209182029290920101526002546040516370a0823160e01b815230600482015260009291909116906370a0823190602401602060405180830381865afa1580156119d6573d6000803e3d6000fd5b505050506040513d601f19601f820116820180604052508101906119fa9190611ea6565b600754604051635c11d79560e01b81529192506001600160a01b031690635c11d79590611a34908790600090879030904290600401611fe7565b600060405180830381600087803b158015611a4e57600080fd5b505af1158015611a62573d6000803e3d6000fd5b50506002546040516370a0823160e01b8152306004820152600093506001600160a01b0390911691506370a0823190602401602060405180830381865afa158015611ab1573d6000803e3d6000fd5b505050506040513d601f19601f82011682018060405250810190611ad59190611ea6565b9050611ae18183611c96565b9695505050505050565b604080516002808252606082018352600092839291906020830190803683370190505090508381600081518110611b2457611b24611ef2565b6001600160a01b03928316602091820292909201810191909152600754604080516315ab88c960e31b81529051919093169263ad5c46489260048083019391928290030181865afa158015611b7d573d6000803e3d6000fd5b505050506040513d601f19601f82011682018060405250810190611ba19190611f39565b81600181518110611bb457611bb4611ef2565b6001600160a01b03928316602091820292909201015260075447911663791ac9478560008530611be64261012c611f56565b6040518663ffffffff1660e01b8152600401611c06959493929190611fe7565b600060405180830381600087803b158015611c2057600080fd5b505af1158015611c34573d6000803e3d6000fd5b50479250611ae1915082905083611c96565b600080546001600160a01b038381166001600160a01b0319831681178455604051919092169283917f8be0079c531659141344cd1fd0a4f28419497f9722a3daafe3b4186f6b6457e09190a35050565b6000611ca28284612023565b9392505050565b6040805160e081018252600080825260208201819052918101829052606081018290526080810182905260a0810182905260c081019190915290565b6001600160a01b038116811461127e57600080fd5b801515811461127e57600080fd5b600080600060608486031215611d1d57600080fd5b8335611d2881611ce5565b9250602084013591506040840135611d3f81611cfa565b809150509250925092565b600060208284031215611d5c57600080fd5b8135611ca281611ce5565b600080600080600060a08688031215611d7f57600080fd5b8535611d8a81611ce5565b9450602086013593506040860135611da181611ce5565b9250606086013591506080860135611db881611cfa565b809150509295509295909350565b602080825282518282018190526000919060409081850190868401855b82811015611e4b57815180518552868101516001600160a01b03908116888701528682015116868601526060808201519086015260808082015115159086015260a0808201519086015260c09081015115159085015260e09093019290850190600101611de3565b5091979650505050505050565b600060208284031215611e6a57600080fd5b5035919050565b6020808252818101527f4f776e61626c653a2063616c6c6572206973206e6f7420746865206f776e6572604082015260600190565b600060208284031215611eb857600080fd5b5051919050565b600060208284031215611ed157600080fd5b8151611ca281611cfa565b634e487b7160e01b600052604160045260246000fd5b634e487b7160e01b600052603260045260246000fd5b634e487b7160e01b600052601160045260246000fd5b6000600019821415611f3257611f32611f08565b5060010190565b600060208284031215611f4b57600080fd5b8151611ca281611ce5565b60008219821115611f6957611f69611f08565b500190565b600081518084526020808501945080840160005b83811015611fa75781516001600160a01b031687529582019590820190600101611f82565b509495945050505050565b848152608060208201526000611fcb6080830186611f6e565b6001600160a01b03949094166040830152506060015292915050565b85815284602082015260a06040820152600061200660a0830186611f6e565b6001600160a01b0394909416606083015250608001529392505050565b60008282101561203557612035611f08565b50039056fea264697066735822122060315ed84d4f5f97939b40e787ebd5d3f9c33ae509ecb55b7e5a473c87f17c1764736f6c634300080a0033",
  "devdoc": {
    "kind": "dev",
    "methods": {
      "LockEth(address,uint256,bool)": {
        "details": "Sender will send eth to this, and if swap is true, swap it with denomination ERC20 token on uniswap, and create lock funds",
        "params": {
          "lockTime": "lock time",
          "swap": "if true, swap with denomination asset ",
          "unlocker": "The address that will be able to unlock the funds within lock time"
        }
      },
      "LockToken(address,uint256,address,uint256,bool)": {
        "details": "Sender swaps any ERC20 token with Eth on uniswap, and create lock funds",
        "params": {
          "amount": "ERC20 token amount",
          "erc20Token": "Any ERC20 token for swap",
          "isToken": "if true, create new token plan, else create new eth plan.",
          "lockTime": "lock time",
          "unlocker": "The address that will be able to unlock the funds within lock time"
        }
      },
      "claimLockedFund(uint256)": {
        "details": "claim locked token within lock time  -  unlocker.",
        "params": {
          "id": "locked fund id"
        }
      },
      "getPlansByOwner(address)": {
        "details": "Get all plans per owner",
        "params": {
          "owner": "owner of plans*"
        }
      },
      "getPlansByUnlocker(address)": {
        "details": "Get certain plan per unlocker claimable.",
        "params": {
          "unlocker": "unlocker of plan"
        }
      },
      "getTotalPlanCount()": {
        "details": "get current plan's length"
      },
      "getUnClaimedFunds()": {
        "details": "Retrieve unclaimed locked funds after locktime "
      },
      "owner()": {
        "details": "Returns the address of the current owner."
      },
      "registerToken(address)": {
        "details": "Register new acceptable token",
        "params": {
          "newERC20TokenAddress": "acceptable token address"
        }
      },
      "renounceOwnership()": {
        "details": "Leaves the contract without owner. It will not be possible to call `onlyOwner` functions anymore. Can only be called by the current owner. NOTE: Renouncing ownership will leave the contract without an owner, thereby removing any functionality that is only available to the owner."
      },
      "transferOwnership(address)": {
        "details": "Transfers ownership of the contract to a new account (`newOwner`). Can only be called by the current owner."
      },
      "withdraw(uint256)": {
        "details": "Withdraw money back within lockTime. Owner, ",
        "params": {
          "id": "plan id"
        }
      }
    },
    "version": 1
  },
  "userdoc": {
    "kind": "user",
    "methods": {},
    "version": 1
  },
  "storageLayout": {
    "storage": [
      {
        "astId": 7,
        "contract": "contracts/FundLockManager.sol:FundLockManager",
        "label": "_owner",
        "offset": 0,
        "slot": "0",
        "type": "t_address"
      },
      {
        "astId": 115,
        "contract": "contracts/FundLockManager.sol:FundLockManager",
        "label": "_status",
        "offset": 0,
        "slot": "1",
        "type": "t_uint256"
      },
      {
        "astId": 1281,
        "contract": "contracts/FundLockManager.sol:FundLockManager",
        "label": "_denominationToken",
        "offset": 0,
        "slot": "2",
        "type": "t_contract(ERC20)732"
      },
      {
        "astId": 1285,
        "contract": "contracts/FundLockManager.sol:FundLockManager",
        "label": "allowedTokens",
        "offset": 0,
        "slot": "3",
        "type": "t_mapping(t_address,t_bool)"
      },
      {
        "astId": 1289,
        "contract": "contracts/FundLockManager.sol:FundLockManager",
        "label": "_plans",
        "offset": 0,
        "slot": "4",
        "type": "t_array(t_struct(Plan)1278_storage)dyn_storage"
      },
      {
        "astId": 1292,
        "contract": "contracts/FundLockManager.sol:FundLockManager",
        "label": "_planCounter",
        "offset": 0,
        "slot": "5",
        "type": "t_struct(Counter)863_storage"
      },
      {
        "astId": 1298,
        "contract": "contracts/FundLockManager.sol:FundLockManager",
        "label": "_uniswapV2Factory",
        "offset": 0,
        "slot": "6",
        "type": "t_contract(IUniswapV2Factory)2375"
      },
      {
        "astId": 1304,
        "contract": "contracts/FundLockManager.sol:FundLockManager",
        "label": "_uniswapV2Router",
        "offset": 0,
        "slot": "7",
        "type": "t_contract(IUniswapV2Router02)2463"
      }
    ],
    "types": {
      "t_address": {
        "encoding": "inplace",
        "label": "address",
        "numberOfBytes": "20"
      },
      "t_array(t_struct(Plan)1278_storage)dyn_storage": {
        "base": "t_struct(Plan)1278_storage",
        "encoding": "dynamic_array",
        "label": "struct FundLockManager.Plan[]",
        "numberOfBytes": "32"
      },
      "t_bool": {
        "encoding": "inplace",
        "label": "bool",
        "numberOfBytes": "1"
      },
      "t_contract(ERC20)732": {
        "encoding": "inplace",
        "label": "contract ERC20",
        "numberOfBytes": "20"
      },
      "t_contract(IUniswapV2Factory)2375": {
        "encoding": "inplace",
        "label": "contract IUniswapV2Factory",
        "numberOfBytes": "20"
      },
      "t_contract(IUniswapV2Router02)2463": {
        "encoding": "inplace",
        "label": "contract IUniswapV2Router02",
        "numberOfBytes": "20"
      },
      "t_mapping(t_address,t_bool)": {
        "encoding": "mapping",
        "key": "t_address",
        "label": "mapping(address => bool)",
        "numberOfBytes": "32",
        "value": "t_bool"
      },
      "t_struct(Counter)863_storage": {
        "encoding": "inplace",
        "label": "struct Counters.Counter",
        "members": [
          {
            "astId": 862,
            "contract": "contracts/FundLockManager.sol:FundLockManager",
            "label": "_value",
            "offset": 0,
            "slot": "0",
            "type": "t_uint256"
          }
        ],
        "numberOfBytes": "32"
      },
      "t_struct(Plan)1278_storage": {
        "encoding": "inplace",
        "label": "struct FundLockManager.Plan",
        "members": [
          {
            "astId": 1265,
            "contract": "contracts/FundLockManager.sol:FundLockManager",
            "label": "id",
            "offset": 0,
            "slot": "0",
            "type": "t_uint256"
          },
          {
            "astId": 1267,
            "contract": "contracts/FundLockManager.sol:FundLockManager",
            "label": "owner",
            "offset": 0,
            "slot": "1",
            "type": "t_address"
          },
          {
            "astId": 1269,
            "contract": "contracts/FundLockManager.sol:FundLockManager",
            "label": "unlocker",
            "offset": 0,
            "slot": "2",
            "type": "t_address"
          },
          {
            "astId": 1271,
            "contract": "contracts/FundLockManager.sol:FundLockManager",
            "label": "amount",
            "offset": 0,
            "slot": "3",
            "type": "t_uint256"
          },
          {
            "astId": 1273,
            "contract": "contracts/FundLockManager.sol:FundLockManager",
            "label": "isToken",
            "offset": 0,
            "slot": "4",
            "type": "t_bool"
          },
          {
            "astId": 1275,
            "contract": "contracts/FundLockManager.sol:FundLockManager",
            "label": "lockTime",
            "offset": 0,
            "slot": "5",
            "type": "t_uint256"
          },
          {
            "astId": 1277,
            "contract": "contracts/FundLockManager.sol:FundLockManager",
            "label": "isClaimable",
            "offset": 0,
            "slot": "6",
            "type": "t_bool"
          }
        ],
        "numberOfBytes": "224"
      },
      "t_uint256": {
        "encoding": "inplace",
        "label": "uint256",
        "numberOfBytes": "32"
      }
    }
  }
}